{
  "_format": "hh-sol-artifact-1",
  "contractName": "BeerBotHoldersSplitter",
  "sourceName": "contracts/BeerBotHoldersSplitter.sol",
  "abi": [
    {
      "inputs": [],
      "stateMutability": "nonpayable",
      "type": "constructor"
    },
    {
      "anonymous": false,
      "inputs": [
        {
          "indexed": true,
          "internalType": "address",
          "name": "previousOwner",
          "type": "address"
        },
        {
          "indexed": true,
          "internalType": "address",
          "name": "newOwner",
          "type": "address"
        }
      ],
      "name": "OwnershipTransferred",
      "type": "event"
    },
    {
      "inputs": [],
      "name": "owner",
      "outputs": [
        {
          "internalType": "address",
          "name": "",
          "type": "address"
        }
      ],
      "stateMutability": "view",
      "type": "function"
    },
    {
      "inputs": [],
      "name": "renounceOwnership",
      "outputs": [],
      "stateMutability": "nonpayable",
      "type": "function"
    },
    {
      "inputs": [
        {
          "internalType": "bytes32",
          "name": "_symbol",
          "type": "bytes32"
        },
        {
          "internalType": "address[]",
          "name": "payees",
          "type": "address[]"
        },
        {
          "internalType": "uint16[]",
          "name": "shares_",
          "type": "uint16[]"
        }
      ],
      "name": "splitToHolders",
      "outputs": [],
      "stateMutability": "payable",
      "type": "function"
    },
    {
      "inputs": [
        {
          "internalType": "bytes32",
          "name": "_symbol",
          "type": "bytes32"
        }
      ],
      "name": "symbolContractBalance",
      "outputs": [
        {
          "internalType": "uint256",
          "name": "",
          "type": "uint256"
        }
      ],
      "stateMutability": "nonpayable",
      "type": "function"
    },
    {
      "inputs": [
        {
          "internalType": "address",
          "name": "newOwner",
          "type": "address"
        }
      ],
      "name": "transferOwnership",
      "outputs": [],
      "stateMutability": "nonpayable",
      "type": "function"
    },
    {
      "inputs": [
        {
          "internalType": "bytes32",
          "name": "_symbol",
          "type": "bytes32"
        }
      ],
      "name": "whiteListedTokenAddress",
      "outputs": [
        {
          "internalType": "address",
          "name": "",
          "type": "address"
        }
      ],
      "stateMutability": "view",
      "type": "function"
    },
    {
      "inputs": [
        {
          "internalType": "bytes32",
          "name": "",
          "type": "bytes32"
        }
      ],
      "name": "whiteListedTokens",
      "outputs": [
        {
          "internalType": "address",
          "name": "",
          "type": "address"
        }
      ],
      "stateMutability": "view",
      "type": "function"
    },
    {
      "inputs": [
        {
          "internalType": "bytes32",
          "name": "_symbol",
          "type": "bytes32"
        },
        {
          "internalType": "address",
          "name": "tokenAddress",
          "type": "address"
        }
      ],
      "name": "whitelistToken",
      "outputs": [],
      "stateMutability": "nonpayable",
      "type": "function"
    }
  ],
  "bytecode": "0x608060405234801561001057600080fd5b5061002d61002261003260201b60201c565b61003a60201b60201c565b6100fe565b600033905090565b60008060009054906101000a900473ffffffffffffffffffffffffffffffffffffffff169050816000806101000a81548173ffffffffffffffffffffffffffffffffffffffff021916908373ffffffffffffffffffffffffffffffffffffffff1602179055508173ffffffffffffffffffffffffffffffffffffffff168173ffffffffffffffffffffffffffffffffffffffff167f8be0079c531659141344cd1fd0a4f28419497f9722a3daafe3b4186f6b6457e060405160405180910390a35050565b6113e18061010d6000396000f3fe60806040526004361061007b5760003560e01c8063b07fd2331161004e578063b07fd23314610128578063b757d42814610144578063dca6f3f814610181578063f2fde38b146101be5761007b565b8063069fdaae14610080578063715018a6146100a95780638930e0fe146100c05780638da5cb5b146100fd575b600080fd5b34801561008c57600080fd5b506100a760048036038101906100a29190610a77565b6101e7565b005b3480156100b557600080fd5b506100be610245565b005b3480156100cc57600080fd5b506100e760048036038101906100e29190610ab7565b610259565b6040516100f49190610af3565b60405180910390f35b34801561010957600080fd5b5061011261028c565b60405161011f9190610af3565b60405180910390f35b610142600480360381019061013d9190610d64565b6102b5565b005b34801561015057600080fd5b5061016b60048036038101906101669190610ab7565b610587565b6040516101789190610e08565b60405180910390f35b34801561018d57600080fd5b506101a860048036038101906101a39190610ab7565b61064e565b6040516101b59190610af3565b60405180910390f35b3480156101ca57600080fd5b506101e560048036038101906101e09190610e23565b61072d565b005b6101ef6107b1565b806001600084815260200190815260200160002060006101000a81548173ffffffffffffffffffffffffffffffffffffffff021916908373ffffffffffffffffffffffffffffffffffffffff1602179055505050565b61024d6107b1565b610257600061082f565b565b60016020528060005260406000206000915054906101000a900473ffffffffffffffffffffffffffffffffffffffff1681565b60008060009054906101000a900473ffffffffffffffffffffffffffffffffffffffff16905090565b6102bd6107b1565b6000825111610301576040517f08c379a00000000000000000000000000000000000000000000000000000000081526004016102f890610ead565b60405180910390fd5b8051825114610345576040517f08c379a000000000000000000000000000000000000000000000000000000000815260040161033c90610f3f565b60405180910390fd5b600073ffffffffffffffffffffffffffffffffffffffff166001600085815260200190815260200160002060009054906101000a900473ffffffffffffffffffffffffffffffffffffffff1673ffffffffffffffffffffffffffffffffffffffff1614156103e8576040517f08c379a00000000000000000000000000000000000000000000000000000000081526004016103df90610fd1565b60405180910390fd5b60006103f384610587565b11610433576040517f08c379a000000000000000000000000000000000000000000000000000000000815260040161042a90611063565b60405180910390fd5b6000806001600086815260200190815260200160002060009054906101000a900473ffffffffffffffffffffffffffffffffffffffff1673ffffffffffffffffffffffffffffffffffffffff166370a08231306040518263ffffffff1660e01b81526004016104a29190610af3565b602060405180830381600087803b1580156104bc57600080fd5b505af11580156104d0573d6000803e3d6000fd5b505050506040513d601f19601f820116820180604052508101906104f491906110af565b905060005b84518161ffff16101561057f57612710848261ffff16815181106105205761051f6110dc565b5b602002602001015161ffff1683610537919061113a565b61054191906111c3565b925061056c86868361ffff168151811061055e5761055d6110dc565b5b6020026020010151856108f3565b8080610577906111f4565b9150506104f9565b505050505050565b60006001600083815260200190815260200160002060009054906101000a900473ffffffffffffffffffffffffffffffffffffffff1673ffffffffffffffffffffffffffffffffffffffff166370a08231306040518263ffffffff1660e01b81526004016105f59190610af3565b602060405180830381600087803b15801561060f57600080fd5b505af1158015610623573d6000803e3d6000fd5b505050506040513d601f19601f8201168201806040525081019061064791906110af565b9050919050565b60008073ffffffffffffffffffffffffffffffffffffffff166001600084815260200190815260200160002060009054906101000a900473ffffffffffffffffffffffffffffffffffffffff1673ffffffffffffffffffffffffffffffffffffffff1614156106f2576040517f08c379a00000000000000000000000000000000000000000000000000000000081526004016106e990610fd1565b60405180910390fd5b6001600083815260200190815260200160002060009054906101000a900473ffffffffffffffffffffffffffffffffffffffff169050919050565b6107356107b1565b600073ffffffffffffffffffffffffffffffffffffffff168173ffffffffffffffffffffffffffffffffffffffff1614156107a5576040517f08c379a000000000000000000000000000000000000000000000000000000000815260040161079c90611291565b60405180910390fd5b6107ae8161082f565b50565b6107b96109c7565b73ffffffffffffffffffffffffffffffffffffffff166107d761028c565b73ffffffffffffffffffffffffffffffffffffffff161461082d576040517f08c379a0000000000000000000000000000000000000000000000000000000008152600401610824906112fd565b60405180910390fd5b565b60008060009054906101000a900473ffffffffffffffffffffffffffffffffffffffff169050816000806101000a81548173ffffffffffffffffffffffffffffffffffffffff021916908373ffffffffffffffffffffffffffffffffffffffff1602179055508173ffffffffffffffffffffffffffffffffffffffff168173ffffffffffffffffffffffffffffffffffffffff167f8be0079c531659141344cd1fd0a4f28419497f9722a3daafe3b4186f6b6457e060405160405180910390a35050565b6108fb6107b1565b60006001600085815260200190815260200160002060009054906101000a900473ffffffffffffffffffffffffffffffffffffffff1690508073ffffffffffffffffffffffffffffffffffffffff1663a9059cbb84846040518363ffffffff1660e01b815260040161096e92919061131d565b602060405180830381600087803b15801561098857600080fd5b505af115801561099c573d6000803e3d6000fd5b505050506040513d601f19601f820116820180604052508101906109c0919061137e565b5050505050565b600033905090565b6000604051905090565b600080fd5b600080fd5b6000819050919050565b6109f6816109e3565b8114610a0157600080fd5b50565b600081359050610a13816109ed565b92915050565b600073ffffffffffffffffffffffffffffffffffffffff82169050919050565b6000610a4482610a19565b9050919050565b610a5481610a39565b8114610a5f57600080fd5b50565b600081359050610a7181610a4b565b92915050565b60008060408385031215610a8e57610a8d6109d9565b5b6000610a9c85828601610a04565b9250506020610aad85828601610a62565b9150509250929050565b600060208284031215610acd57610acc6109d9565b5b6000610adb84828501610a04565b91505092915050565b610aed81610a39565b82525050565b6000602082019050610b086000830184610ae4565b92915050565b600080fd5b6000601f19601f8301169050919050565b7f4e487b7100000000000000000000000000000000000000000000000000000000600052604160045260246000fd5b610b5c82610b13565b810181811067ffffffffffffffff82111715610b7b57610b7a610b24565b5b80604052505050565b6000610b8e6109cf565b9050610b9a8282610b53565b919050565b600067ffffffffffffffff821115610bba57610bb9610b24565b5b602082029050602081019050919050565b600080fd5b6000610be3610bde84610b9f565b610b84565b90508083825260208201905060208402830185811115610c0657610c05610bcb565b5b835b81811015610c2f5780610c1b8882610a62565b845260208401935050602081019050610c08565b5050509392505050565b600082601f830112610c4e57610c4d610b0e565b5b8135610c5e848260208601610bd0565b91505092915050565b600067ffffffffffffffff821115610c8257610c81610b24565b5b602082029050602081019050919050565b600061ffff82169050919050565b610caa81610c93565b8114610cb557600080fd5b50565b600081359050610cc781610ca1565b92915050565b6000610ce0610cdb84610c67565b610b84565b90508083825260208201905060208402830185811115610d0357610d02610bcb565b5b835b81811015610d2c5780610d188882610cb8565b845260208401935050602081019050610d05565b5050509392505050565b600082601f830112610d4b57610d4a610b0e565b5b8135610d5b848260208601610ccd565b91505092915050565b600080600060608486031215610d7d57610d7c6109d9565b5b6000610d8b86828701610a04565b935050602084013567ffffffffffffffff811115610dac57610dab6109de565b5b610db886828701610c39565b925050604084013567ffffffffffffffff811115610dd957610dd86109de565b5b610de586828701610d36565b9150509250925092565b6000819050919050565b610e0281610def565b82525050565b6000602082019050610e1d6000830184610df9565b92915050565b600060208284031215610e3957610e386109d9565b5b6000610e4784828501610a62565b91505092915050565b600082825260208201905092915050565b7f73706c6974546f486f6c646572733a206e6f2070617965657300000000000000600082015250565b6000610e97601983610e50565b9150610ea282610e61565b602082019050919050565b60006020820190508181036000830152610ec681610e8a565b9050919050565b7f73706c6974546f486f6c646572733a2070617965657320616e6420736861726560008201527f73206c656e677468206d69736d61746368000000000000000000000000000000602082015250565b6000610f29603183610e50565b9150610f3482610ecd565b604082019050919050565b60006020820190508181036000830152610f5881610f1c565b9050919050565b7f73706c6974546f486f6c646572733a206e6f742077686974656c69746564207460008201527f6f6b656e00000000000000000000000000000000000000000000000000000000602082015250565b6000610fbb602483610e50565b9150610fc682610f5f565b604082019050919050565b60006020820190508181036000830152610fea81610fae565b9050919050565b7f73706c6974546f486f6c646572733a206e6f2066756e6473206f6620746f6b6560008201527f6e00000000000000000000000000000000000000000000000000000000000000602082015250565b600061104d602183610e50565b915061105882610ff1565b604082019050919050565b6000602082019050818103600083015261107c81611040565b9050919050565b61108c81610def565b811461109757600080fd5b50565b6000815190506110a981611083565b92915050565b6000602082840312156110c5576110c46109d9565b5b60006110d38482850161109a565b91505092915050565b7f4e487b7100000000000000000000000000000000000000000000000000000000600052603260045260246000fd5b7f4e487b7100000000000000000000000000000000000000000000000000000000600052601160045260246000fd5b600061114582610def565b915061115083610def565b9250817fffffffffffffffffffffffffffffffffffffffffffffffffffffffffffffffff04831182151516156111895761118861110b565b5b828202905092915050565b7f4e487b7100000000000000000000000000000000000000000000000000000000600052601260045260246000fd5b60006111ce82610def565b91506111d983610def565b9250826111e9576111e8611194565b5b828204905092915050565b60006111ff82610c93565b915061ffff8214156112145761121361110b565b5b600182019050919050565b7f4f776e61626c653a206e6577206f776e657220697320746865207a65726f206160008201527f6464726573730000000000000000000000000000000000000000000000000000602082015250565b600061127b602683610e50565b91506112868261121f565b604082019050919050565b600060208201905081810360008301526112aa8161126e565b9050919050565b7f4f776e61626c653a2063616c6c6572206973206e6f7420746865206f776e6572600082015250565b60006112e7602083610e50565b91506112f2826112b1565b602082019050919050565b60006020820190508181036000830152611316816112da565b9050919050565b60006040820190506113326000830185610ae4565b61133f6020830184610df9565b9392505050565b60008115159050919050565b61135b81611346565b811461136657600080fd5b50565b60008151905061137881611352565b92915050565b600060208284031215611394576113936109d9565b5b60006113a284828501611369565b9150509291505056fea2646970667358221220ade8cdd3b1c96be9db27effc9a50617b61a9ac86d7987daf70a0647b588ada7464736f6c63430008090033",
  "linkReferences": {},
  "deployedLinkReferences": {}
}