{
  "_format": "hh-sol-artifact-1",
  "contractName": "BeerBotHoldersSplitter",
  "sourceName": "contracts/BeerBotHoldersSplitter.sol",
  "abi": [
    {
      "inputs": [],
      "stateMutability": "nonpayable",
      "type": "constructor"
    },
    {
      "anonymous": false,
      "inputs": [
        {
          "indexed": true,
          "internalType": "address",
          "name": "previousOwner",
          "type": "address"
        },
        {
          "indexed": true,
          "internalType": "address",
          "name": "newOwner",
          "type": "address"
        }
      ],
      "name": "OwnershipTransferred",
      "type": "event"
    },
    {
      "inputs": [],
      "name": "owner",
      "outputs": [
        {
          "internalType": "address",
          "name": "",
          "type": "address"
        }
      ],
      "stateMutability": "view",
      "type": "function"
    },
    {
      "inputs": [],
      "name": "renounceOwnership",
      "outputs": [],
      "stateMutability": "nonpayable",
      "type": "function"
    },
    {
      "inputs": [
        {
          "internalType": "address[]",
          "name": "payees",
          "type": "address[]"
        },
        {
          "internalType": "uint16[]",
          "name": "shares_",
          "type": "uint16[]"
        }
      ],
      "name": "splitNativeTokenToHolders",
      "outputs": [],
      "stateMutability": "payable",
      "type": "function"
    },
    {
      "inputs": [
        {
          "internalType": "bytes32",
          "name": "_symbol",
          "type": "bytes32"
        },
        {
          "internalType": "address[]",
          "name": "payees",
          "type": "address[]"
        },
        {
          "internalType": "uint16[]",
          "name": "shares_",
          "type": "uint16[]"
        }
      ],
      "name": "splitSymbolToHolders",
      "outputs": [],
      "stateMutability": "nonpayable",
      "type": "function"
    },
    {
      "inputs": [
        {
          "internalType": "bytes32",
          "name": "_symbol",
          "type": "bytes32"
        }
      ],
      "name": "symbolContractBalance",
      "outputs": [
        {
          "internalType": "uint256",
          "name": "",
          "type": "uint256"
        }
      ],
      "stateMutability": "nonpayable",
      "type": "function"
    },
    {
      "inputs": [
        {
          "internalType": "address",
          "name": "newOwner",
          "type": "address"
        }
      ],
      "name": "transferOwnership",
      "outputs": [],
      "stateMutability": "nonpayable",
      "type": "function"
    },
    {
      "inputs": [
        {
          "internalType": "bytes32",
          "name": "_symbol",
          "type": "bytes32"
        }
      ],
      "name": "whiteListedTokenAddress",
      "outputs": [
        {
          "internalType": "address",
          "name": "",
          "type": "address"
        }
      ],
      "stateMutability": "view",
      "type": "function"
    },
    {
      "inputs": [
        {
          "internalType": "bytes32",
          "name": "",
          "type": "bytes32"
        }
      ],
      "name": "whiteListedTokens",
      "outputs": [
        {
          "internalType": "address",
          "name": "",
          "type": "address"
        }
      ],
      "stateMutability": "view",
      "type": "function"
    },
    {
      "inputs": [
        {
          "internalType": "bytes32",
          "name": "_symbol",
          "type": "bytes32"
        },
        {
          "internalType": "address",
          "name": "tokenAddress",
          "type": "address"
        }
      ],
      "name": "whitelistToken",
      "outputs": [],
      "stateMutability": "nonpayable",
      "type": "function"
    }
  ],
  "bytecode": "0x608060405234801561001057600080fd5b5061002d61002261003260201b60201c565b61003a60201b60201c565b6100fe565b600033905090565b60008060009054906101000a900473ffffffffffffffffffffffffffffffffffffffff169050816000806101000a81548173ffffffffffffffffffffffffffffffffffffffff021916908373ffffffffffffffffffffffffffffffffffffffff1602179055508173ffffffffffffffffffffffffffffffffffffffff168173ffffffffffffffffffffffffffffffffffffffff167f8be0079c531659141344cd1fd0a4f28419497f9722a3daafe3b4186f6b6457e060405160405180910390a35050565b6117018061010d6000396000f3fe6080604052600436106100865760003560e01c80638da5cb5b116100595780638da5cb5b14610124578063b757d4281461014f578063d22e46281461018c578063dca6f3f8146101b5578063f2fde38b146101f257610086565b8063069fdaae1461008b578063715018a6146100b457806385575d40146100cb5780638930e0fe146100e7575b600080fd5b34801561009757600080fd5b506100b260048036038101906100ad9190610c6d565b61021b565b005b3480156100c057600080fd5b506100c9610279565b005b6100e560048036038101906100e09190610f03565b61028d565b005b3480156100f357600080fd5b5061010e60048036038101906101099190610f7b565b61044f565b60405161011b9190610fb7565b60405180910390f35b34801561013057600080fd5b50610139610482565b6040516101469190610fb7565b60405180910390f35b34801561015b57600080fd5b5061017660048036038101906101719190610f7b565b6104ab565b6040516101839190610feb565b60405180910390f35b34801561019857600080fd5b506101b360048036038101906101ae9190611006565b610572565b005b3480156101c157600080fd5b506101dc60048036038101906101d79190610f7b565b610844565b6040516101e99190610fb7565b60405180910390f35b3480156101fe57600080fd5b5061021960048036038101906102149190611091565b610923565b005b6102236109a7565b806001600084815260200190815260200160002060006101000a81548173ffffffffffffffffffffffffffffffffffffffff021916908373ffffffffffffffffffffffffffffffffffffffff1602179055505050565b6102816109a7565b61028b6000610a25565b565b6102956109a7565b60008251116102d9576040517f08c379a00000000000000000000000000000000000000000000000000000000081526004016102d09061111b565b60405180910390fd5b805182511461031d576040517f08c379a0000000000000000000000000000000000000000000000000000000008152600401610314906111ad565b60405180910390fd5b6000805b83518161ffff16101561044957612710838261ffff1681518110610348576103476111cd565b5b602002602001015161ffff163461035f919061122b565b61036991906112b4565b91506000848261ffff1681518110610384576103836111cd565b5b602002602001015173ffffffffffffffffffffffffffffffffffffffff16836040516103af90611316565b60006040518083038185875af1925050503d80600081146103ec576040519150601f19603f3d011682016040523d82523d6000602084013e6103f1565b606091505b5050905080610435576040517f08c379a000000000000000000000000000000000000000000000000000000000815260040161042c90611377565b60405180910390fd5b50808061044190611397565b915050610321565b50505050565b60016020528060005260406000206000915054906101000a900473ffffffffffffffffffffffffffffffffffffffff1681565b60008060009054906101000a900473ffffffffffffffffffffffffffffffffffffffff16905090565b60006001600083815260200190815260200160002060009054906101000a900473ffffffffffffffffffffffffffffffffffffffff1673ffffffffffffffffffffffffffffffffffffffff166370a08231306040518263ffffffff1660e01b81526004016105199190610fb7565b602060405180830381600087803b15801561053357600080fd5b505af1158015610547573d6000803e3d6000fd5b505050506040513d601f19601f8201168201806040525081019061056b91906113ee565b9050919050565b61057a6109a7565b60008251116105be576040517f08c379a00000000000000000000000000000000000000000000000000000000081526004016105b59061111b565b60405180910390fd5b8051825114610602576040517f08c379a00000000000000000000000000000000000000000000000000000000081526004016105f9906111ad565b60405180910390fd5b600073ffffffffffffffffffffffffffffffffffffffff166001600085815260200190815260200160002060009054906101000a900473ffffffffffffffffffffffffffffffffffffffff1673ffffffffffffffffffffffffffffffffffffffff1614156106a5576040517f08c379a000000000000000000000000000000000000000000000000000000000815260040161069c9061148d565b60405180910390fd5b60006106b0846104ab565b116106f0576040517f08c379a00000000000000000000000000000000000000000000000000000000081526004016106e79061151f565b60405180910390fd5b6000806001600086815260200190815260200160002060009054906101000a900473ffffffffffffffffffffffffffffffffffffffff1673ffffffffffffffffffffffffffffffffffffffff166370a08231306040518263ffffffff1660e01b815260040161075f9190610fb7565b602060405180830381600087803b15801561077957600080fd5b505af115801561078d573d6000803e3d6000fd5b505050506040513d601f19601f820116820180604052508101906107b191906113ee565b905060005b84518161ffff16101561083c57612710848261ffff16815181106107dd576107dc6111cd565b5b602002602001015161ffff16836107f4919061122b565b6107fe91906112b4565b925061082986868361ffff168151811061081b5761081a6111cd565b5b602002602001015185610ae9565b808061083490611397565b9150506107b6565b505050505050565b60008073ffffffffffffffffffffffffffffffffffffffff166001600084815260200190815260200160002060009054906101000a900473ffffffffffffffffffffffffffffffffffffffff1673ffffffffffffffffffffffffffffffffffffffff1614156108e8576040517f08c379a00000000000000000000000000000000000000000000000000000000081526004016108df9061148d565b60405180910390fd5b6001600083815260200190815260200160002060009054906101000a900473ffffffffffffffffffffffffffffffffffffffff169050919050565b61092b6109a7565b600073ffffffffffffffffffffffffffffffffffffffff168173ffffffffffffffffffffffffffffffffffffffff16141561099b576040517f08c379a0000000000000000000000000000000000000000000000000000000008152600401610992906115b1565b60405180910390fd5b6109a481610a25565b50565b6109af610bbd565b73ffffffffffffffffffffffffffffffffffffffff166109cd610482565b73ffffffffffffffffffffffffffffffffffffffff1614610a23576040517f08c379a0000000000000000000000000000000000000000000000000000000008152600401610a1a9061161d565b60405180910390fd5b565b60008060009054906101000a900473ffffffffffffffffffffffffffffffffffffffff169050816000806101000a81548173ffffffffffffffffffffffffffffffffffffffff021916908373ffffffffffffffffffffffffffffffffffffffff1602179055508173ffffffffffffffffffffffffffffffffffffffff168173ffffffffffffffffffffffffffffffffffffffff167f8be0079c531659141344cd1fd0a4f28419497f9722a3daafe3b4186f6b6457e060405160405180910390a35050565b610af16109a7565b60006001600085815260200190815260200160002060009054906101000a900473ffffffffffffffffffffffffffffffffffffffff1690508073ffffffffffffffffffffffffffffffffffffffff1663a9059cbb84846040518363ffffffff1660e01b8152600401610b6492919061163d565b602060405180830381600087803b158015610b7e57600080fd5b505af1158015610b92573d6000803e3d6000fd5b505050506040513d601f19601f82011682018060405250810190610bb6919061169e565b5050505050565b600033905090565b6000604051905090565b600080fd5b600080fd5b6000819050919050565b610bec81610bd9565b8114610bf757600080fd5b50565b600081359050610c0981610be3565b92915050565b600073ffffffffffffffffffffffffffffffffffffffff82169050919050565b6000610c3a82610c0f565b9050919050565b610c4a81610c2f565b8114610c5557600080fd5b50565b600081359050610c6781610c41565b92915050565b60008060408385031215610c8457610c83610bcf565b5b6000610c9285828601610bfa565b9250506020610ca385828601610c58565b9150509250929050565b600080fd5b6000601f19601f8301169050919050565b7f4e487b7100000000000000000000000000000000000000000000000000000000600052604160045260246000fd5b610cfb82610cb2565b810181811067ffffffffffffffff82111715610d1a57610d19610cc3565b5b80604052505050565b6000610d2d610bc5565b9050610d398282610cf2565b919050565b600067ffffffffffffffff821115610d5957610d58610cc3565b5b602082029050602081019050919050565b600080fd5b6000610d82610d7d84610d3e565b610d23565b90508083825260208201905060208402830185811115610da557610da4610d6a565b5b835b81811015610dce5780610dba8882610c58565b845260208401935050602081019050610da7565b5050509392505050565b600082601f830112610ded57610dec610cad565b5b8135610dfd848260208601610d6f565b91505092915050565b600067ffffffffffffffff821115610e2157610e20610cc3565b5b602082029050602081019050919050565b600061ffff82169050919050565b610e4981610e32565b8114610e5457600080fd5b50565b600081359050610e6681610e40565b92915050565b6000610e7f610e7a84610e06565b610d23565b90508083825260208201905060208402830185811115610ea257610ea1610d6a565b5b835b81811015610ecb5780610eb78882610e57565b845260208401935050602081019050610ea4565b5050509392505050565b600082601f830112610eea57610ee9610cad565b5b8135610efa848260208601610e6c565b91505092915050565b60008060408385031215610f1a57610f19610bcf565b5b600083013567ffffffffffffffff811115610f3857610f37610bd4565b5b610f4485828601610dd8565b925050602083013567ffffffffffffffff811115610f6557610f64610bd4565b5b610f7185828601610ed5565b9150509250929050565b600060208284031215610f9157610f90610bcf565b5b6000610f9f84828501610bfa565b91505092915050565b610fb181610c2f565b82525050565b6000602082019050610fcc6000830184610fa8565b92915050565b6000819050919050565b610fe581610fd2565b82525050565b60006020820190506110006000830184610fdc565b92915050565b60008060006060848603121561101f5761101e610bcf565b5b600061102d86828701610bfa565b935050602084013567ffffffffffffffff81111561104e5761104d610bd4565b5b61105a86828701610dd8565b925050604084013567ffffffffffffffff81111561107b5761107a610bd4565b5b61108786828701610ed5565b9150509250925092565b6000602082840312156110a7576110a6610bcf565b5b60006110b584828501610c58565b91505092915050565b600082825260208201905092915050565b7f73706c6974546f486f6c646572733a206e6f2070617965657300000000000000600082015250565b60006111056019836110be565b9150611110826110cf565b602082019050919050565b60006020820190508181036000830152611134816110f8565b9050919050565b7f73706c6974546f486f6c646572733a2070617965657320616e6420736861726560008201527f73206c656e677468206d69736d61746368000000000000000000000000000000602082015250565b60006111976031836110be565b91506111a28261113b565b604082019050919050565b600060208201905081810360008301526111c68161118a565b9050919050565b7f4e487b7100000000000000000000000000000000000000000000000000000000600052603260045260246000fd5b7f4e487b7100000000000000000000000000000000000000000000000000000000600052601160045260246000fd5b600061123682610fd2565b915061124183610fd2565b9250817fffffffffffffffffffffffffffffffffffffffffffffffffffffffffffffffff048311821515161561127a576112796111fc565b5b828202905092915050565b7f4e487b7100000000000000000000000000000000000000000000000000000000600052601260045260246000fd5b60006112bf82610fd2565b91506112ca83610fd2565b9250826112da576112d9611285565b5b828204905092915050565b600081905092915050565b50565b60006113006000836112e5565b915061130b826112f0565b600082019050919050565b6000611321826112f3565b9150819050919050565b7f5769746864726177206661696c65640000000000000000000000000000000000600082015250565b6000611361600f836110be565b915061136c8261132b565b602082019050919050565b6000602082019050818103600083015261139081611354565b9050919050565b60006113a282610e32565b915061ffff8214156113b7576113b66111fc565b5b600182019050919050565b6113cb81610fd2565b81146113d657600080fd5b50565b6000815190506113e8816113c2565b92915050565b60006020828403121561140457611403610bcf565b5b6000611412848285016113d9565b91505092915050565b7f73706c6974546f486f6c646572733a206e6f742077686974656c69746564207460008201527f6f6b656e00000000000000000000000000000000000000000000000000000000602082015250565b60006114776024836110be565b91506114828261141b565b604082019050919050565b600060208201905081810360008301526114a68161146a565b9050919050565b7f73706c6974546f486f6c646572733a206e6f2066756e6473206f6620746f6b6560008201527f6e00000000000000000000000000000000000000000000000000000000000000602082015250565b60006115096021836110be565b9150611514826114ad565b604082019050919050565b60006020820190508181036000830152611538816114fc565b9050919050565b7f4f776e61626c653a206e6577206f776e657220697320746865207a65726f206160008201527f6464726573730000000000000000000000000000000000000000000000000000602082015250565b600061159b6026836110be565b91506115a68261153f565b604082019050919050565b600060208201905081810360008301526115ca8161158e565b9050919050565b7f4f776e61626c653a2063616c6c6572206973206e6f7420746865206f776e6572600082015250565b60006116076020836110be565b9150611612826115d1565b602082019050919050565b60006020820190508181036000830152611636816115fa565b9050919050565b60006040820190506116526000830185610fa8565b61165f6020830184610fdc565b9392505050565b60008115159050919050565b61167b81611666565b811461168657600080fd5b50565b60008151905061169881611672565b92915050565b6000602082840312156116b4576116b3610bcf565b5b60006116c284828501611689565b9150509291505056fea2646970667358221220b53e63aedfbf5cab5c356c4d72b101cc74b3f6e5ec7f007b9b4f42bb5f71a07464736f6c63430008090033",
  "linkReferences": {},
  "deployedLinkReferences": {}
}