{
  "_format": "hh-sol-artifact-1",
  "contractName": "BeerBotHoldersSplitter",
  "sourceName": "contracts/BeerBotHoldersSplitter.sol",
  "abi": [
    {
      "inputs": [],
      "stateMutability": "nonpayable",
      "type": "constructor"
    },
    {
      "anonymous": false,
      "inputs": [
        {
          "indexed": true,
          "internalType": "address",
          "name": "previousOwner",
          "type": "address"
        },
        {
          "indexed": true,
          "internalType": "address",
          "name": "newOwner",
          "type": "address"
        }
      ],
      "name": "OwnershipTransferred",
      "type": "event"
    },
    {
      "anonymous": false,
      "inputs": [
        {
          "indexed": false,
          "internalType": "address",
          "name": "account",
          "type": "address"
        }
      ],
      "name": "Paused",
      "type": "event"
    },
    {
      "anonymous": false,
      "inputs": [
        {
          "indexed": false,
          "internalType": "address",
          "name": "account",
          "type": "address"
        }
      ],
      "name": "Unpaused",
      "type": "event"
    },
    {
      "inputs": [],
      "name": "owner",
      "outputs": [
        {
          "internalType": "address",
          "name": "",
          "type": "address"
        }
      ],
      "stateMutability": "view",
      "type": "function"
    },
    {
      "inputs": [],
      "name": "paused",
      "outputs": [
        {
          "internalType": "bool",
          "name": "",
          "type": "bool"
        }
      ],
      "stateMutability": "view",
      "type": "function"
    },
    {
      "inputs": [],
      "name": "renounceOwnership",
      "outputs": [],
      "stateMutability": "nonpayable",
      "type": "function"
    },
    {
      "inputs": [
        {
          "internalType": "address[]",
          "name": "payees",
          "type": "address[]"
        },
        {
          "internalType": "uint16[]",
          "name": "shares_",
          "type": "uint16[]"
        }
      ],
      "name": "splitToHolders",
      "outputs": [],
      "stateMutability": "payable",
      "type": "function"
    },
    {
      "inputs": [
        {
          "internalType": "address",
          "name": "newOwner",
          "type": "address"
        }
      ],
      "name": "transferOwnership",
      "outputs": [],
      "stateMutability": "nonpayable",
      "type": "function"
    }
  ],
  "bytecode": "0x60806040523480156200001157600080fd5b5062000032620000266200006260201b60201c565b6200006a60201b60201c565b60008060146101000a81548160ff0219169083151502179055506200005c6200012e60201b60201c565b620002f3565b600033905090565b60008060009054906101000a900473ffffffffffffffffffffffffffffffffffffffff169050816000806101000a81548173ffffffffffffffffffffffffffffffffffffffff021916908373ffffffffffffffffffffffffffffffffffffffff1602179055508173ffffffffffffffffffffffffffffffffffffffff168173ffffffffffffffffffffffffffffffffffffffff167f8be0079c531659141344cd1fd0a4f28419497f9722a3daafe3b4186f6b6457e060405160405180910390a35050565b6200013e620001a360201b60201c565b6001600060146101000a81548160ff0219169083151502179055507f62e78cea01bee320cd4e420270b5ea74000d11b0c9f74754ebdbfc544b05a2586200018a6200006260201b60201c565b60405162000199919062000253565b60405180910390a1565b620001b3620001f860201b60201c565b15620001f6576040517f08c379a0000000000000000000000000000000000000000000000000000000008152600401620001ed90620002d1565b60405180910390fd5b565b60008060149054906101000a900460ff16905090565b600073ffffffffffffffffffffffffffffffffffffffff82169050919050565b60006200023b826200020e565b9050919050565b6200024d816200022e565b82525050565b60006020820190506200026a600083018462000242565b92915050565b600082825260208201905092915050565b7f5061757361626c653a2070617573656400000000000000000000000000000000600082015250565b6000620002b960108362000270565b9150620002c68262000281565b602082019050919050565b60006020820190508181036000830152620002ec81620002aa565b9050919050565b610c4780620003036000396000f3fe60806040526004361061004a5760003560e01c80635c975abb1461004f578063715018a61461007a5780638da5cb5b146100915780639b7dd3ce146100bc578063f2fde38b146100d8575b600080fd5b34801561005b57600080fd5b50610064610101565b60405161007191906104bf565b60405180910390f35b34801561008657600080fd5b5061008f610117565b005b34801561009d57600080fd5b506100a661012b565b6040516100b3919061051b565b60405180910390f35b6100d660048036038101906100d191906107cc565b610154565b005b3480156100e457600080fd5b506100ff60048036038101906100fa9190610844565b6102d6565b005b60008060149054906101000a900460ff16905090565b61011f61035a565b61012960006103d8565b565b60008060009054906101000a900473ffffffffffffffffffffffffffffffffffffffff16905090565b61015c61035a565b60008251116101a0576040517f08c379a0000000000000000000000000000000000000000000000000000000008152600401610197906108ce565b60405180910390fd5b80518251146101e4576040517f08c379a00000000000000000000000000000000000000000000000000000000081526004016101db90610960565b60405180910390fd5b6000805b83518161ffff1610156102d057612710838261ffff168151811061020f5761020e610980565b5b602002602001015161ffff163461022691906109e8565b6102309190610a71565b91506000848261ffff168151811061024b5761024a610980565b5b602002602001015173ffffffffffffffffffffffffffffffffffffffff168360405161027690610ad3565b60006040518083038185875af1925050503d80600081146102b3576040519150601f19603f3d011682016040523d82523d6000602084013e6102b8565b606091505b505090505080806102c890610ae8565b9150506101e8565b50505050565b6102de61035a565b600073ffffffffffffffffffffffffffffffffffffffff168173ffffffffffffffffffffffffffffffffffffffff16141561034e576040517f08c379a000000000000000000000000000000000000000000000000000000000815260040161034590610b85565b60405180910390fd5b610357816103d8565b50565b61036261049c565b73ffffffffffffffffffffffffffffffffffffffff1661038061012b565b73ffffffffffffffffffffffffffffffffffffffff16146103d6576040517f08c379a00000000000000000000000000000000000000000000000000000000081526004016103cd90610bf1565b60405180910390fd5b565b60008060009054906101000a900473ffffffffffffffffffffffffffffffffffffffff169050816000806101000a81548173ffffffffffffffffffffffffffffffffffffffff021916908373ffffffffffffffffffffffffffffffffffffffff1602179055508173ffffffffffffffffffffffffffffffffffffffff168173ffffffffffffffffffffffffffffffffffffffff167f8be0079c531659141344cd1fd0a4f28419497f9722a3daafe3b4186f6b6457e060405160405180910390a35050565b600033905090565b60008115159050919050565b6104b9816104a4565b82525050565b60006020820190506104d460008301846104b0565b92915050565b600073ffffffffffffffffffffffffffffffffffffffff82169050919050565b6000610505826104da565b9050919050565b610515816104fa565b82525050565b6000602082019050610530600083018461050c565b92915050565b6000604051905090565b600080fd5b600080fd5b600080fd5b6000601f19601f8301169050919050565b7f4e487b7100000000000000000000000000000000000000000000000000000000600052604160045260246000fd5b6105988261054f565b810181811067ffffffffffffffff821117156105b7576105b6610560565b5b80604052505050565b60006105ca610536565b90506105d6828261058f565b919050565b600067ffffffffffffffff8211156105f6576105f5610560565b5b602082029050602081019050919050565b600080fd5b610615816104fa565b811461062057600080fd5b50565b6000813590506106328161060c565b92915050565b600061064b610646846105db565b6105c0565b9050808382526020820190506020840283018581111561066e5761066d610607565b5b835b8181101561069757806106838882610623565b845260208401935050602081019050610670565b5050509392505050565b600082601f8301126106b6576106b561054a565b5b81356106c6848260208601610638565b91505092915050565b600067ffffffffffffffff8211156106ea576106e9610560565b5b602082029050602081019050919050565b600061ffff82169050919050565b610712816106fb565b811461071d57600080fd5b50565b60008135905061072f81610709565b92915050565b6000610748610743846106cf565b6105c0565b9050808382526020820190506020840283018581111561076b5761076a610607565b5b835b8181101561079457806107808882610720565b84526020840193505060208101905061076d565b5050509392505050565b600082601f8301126107b3576107b261054a565b5b81356107c3848260208601610735565b91505092915050565b600080604083850312156107e3576107e2610540565b5b600083013567ffffffffffffffff81111561080157610800610545565b5b61080d858286016106a1565b925050602083013567ffffffffffffffff81111561082e5761082d610545565b5b61083a8582860161079e565b9150509250929050565b60006020828403121561085a57610859610540565b5b600061086884828501610623565b91505092915050565b600082825260208201905092915050565b7f73706c6974546f486f6c646572733a206e6f2070617965657300000000000000600082015250565b60006108b8601983610871565b91506108c382610882565b602082019050919050565b600060208201905081810360008301526108e7816108ab565b9050919050565b7f73706c6974546f486f6c646572733a2070617965657320616e6420736861726560008201527f73206c656e677468206d69736d61746368000000000000000000000000000000602082015250565b600061094a603183610871565b9150610955826108ee565b604082019050919050565b600060208201905081810360008301526109798161093d565b9050919050565b7f4e487b7100000000000000000000000000000000000000000000000000000000600052603260045260246000fd5b6000819050919050565b7f4e487b7100000000000000000000000000000000000000000000000000000000600052601160045260246000fd5b60006109f3826109af565b91506109fe836109af565b9250817fffffffffffffffffffffffffffffffffffffffffffffffffffffffffffffffff0483118215151615610a3757610a366109b9565b5b828202905092915050565b7f4e487b7100000000000000000000000000000000000000000000000000000000600052601260045260246000fd5b6000610a7c826109af565b9150610a87836109af565b925082610a9757610a96610a42565b5b828204905092915050565b600081905092915050565b50565b6000610abd600083610aa2565b9150610ac882610aad565b600082019050919050565b6000610ade82610ab0565b9150819050919050565b6000610af3826106fb565b915061ffff821415610b0857610b076109b9565b5b600182019050919050565b7f4f776e61626c653a206e6577206f776e657220697320746865207a65726f206160008201527f6464726573730000000000000000000000000000000000000000000000000000602082015250565b6000610b6f602683610871565b9150610b7a82610b13565b604082019050919050565b60006020820190508181036000830152610b9e81610b62565b9050919050565b7f4f776e61626c653a2063616c6c6572206973206e6f7420746865206f776e6572600082015250565b6000610bdb602083610871565b9150610be682610ba5565b602082019050919050565b60006020820190508181036000830152610c0a81610bce565b905091905056fea2646970667358221220ca5445c0fd9dbc355a28c527b3cd9c7554805279bd20fa70b5116c53201ceed064736f6c63430008090033",
  "linkReferences": {},
  "deployedLinkReferences": {}
}